{
  "contractName": "VotingContract",
  "abi": [
    {
      "inputs": [],
      "stateMutability": "nonpayable",
      "type": "constructor"
    },
    {
      "anonymous": false,
      "inputs": [
        {
          "indexed": true,
          "internalType": "string",
          "name": "abstain",
          "type": "string"
        }
      ],
      "name": "Abstain",
      "type": "event"
    },
    {
      "anonymous": false,
      "inputs": [
        {
          "indexed": true,
          "internalType": "string",
          "name": "reject",
          "type": "string"
        }
      ],
      "name": "Reject",
      "type": "event"
    },
    {
      "anonymous": false,
      "inputs": [
        {
          "indexed": true,
          "internalType": "uint256",
          "name": "candidateId",
          "type": "uint256"
        }
      ],
      "name": "Vote",
      "type": "event"
    },
    {
      "inputs": [
        {
          "internalType": "uint256",
          "name": "",
          "type": "uint256"
        }
      ],
      "name": "candidateDetails",
      "outputs": [
        {
          "internalType": "uint256",
          "name": "candidateId",
          "type": "uint256"
        },
        {
          "internalType": "string",
          "name": "name",
          "type": "string"
        },
        {
          "internalType": "string",
          "name": "details",
          "type": "string"
        },
        {
          "internalType": "uint256",
          "name": "voteCount",
          "type": "uint256"
        }
      ],
      "stateMutability": "view",
      "type": "function",
      "constant": true
    },
    {
      "inputs": [
        {
          "internalType": "address",
          "name": "",
          "type": "address"
        }
      ],
      "name": "nonces",
      "outputs": [
        {
          "internalType": "uint256",
          "name": "",
          "type": "uint256"
        }
      ],
      "stateMutability": "view",
      "type": "function",
      "constant": true
    },
    {
      "inputs": [
        {
          "internalType": "address",
          "name": "",
          "type": "address"
        }
      ],
      "name": "voterAddresses",
      "outputs": [
        {
          "internalType": "string",
          "name": "name",
          "type": "string"
        },
        {
          "internalType": "string",
          "name": "voterId",
          "type": "string"
        },
        {
          "internalType": "address",
          "name": "voterAddress",
          "type": "address"
        },
        {
          "internalType": "bool",
          "name": "hasVoted",
          "type": "bool"
        }
      ],
      "stateMutability": "view",
      "type": "function",
      "constant": true
    },
    {
      "inputs": [
        {
          "internalType": "string",
          "name": "_name",
          "type": "string"
        },
        {
          "internalType": "string",
          "name": "_details",
          "type": "string"
        }
      ],
      "name": "addCandidate",
      "outputs": [],
      "stateMutability": "nonpayable",
      "type": "function"
    },
    {
      "inputs": [
        {
          "internalType": "string",
          "name": "_name",
          "type": "string"
        },
        {
          "internalType": "string",
          "name": "_voterId",
          "type": "string"
        },
        {
          "internalType": "address",
          "name": "_voterAddress",
          "type": "address"
        }
      ],
      "name": "manualAddVoter",
      "outputs": [],
      "stateMutability": "nonpayable",
      "type": "function"
    },
    {
      "inputs": [
        {
          "internalType": "uint256",
          "name": "_candidateId",
          "type": "uint256"
        }
      ],
      "name": "vote",
      "outputs": [],
      "stateMutability": "nonpayable",
      "type": "function"
    },
    {
      "inputs": [],
      "name": "abstain",
      "outputs": [],
      "stateMutability": "nonpayable",
      "type": "function"
    },
    {
      "inputs": [],
      "name": "reject",
      "outputs": [],
      "stateMutability": "nonpayable",
      "type": "function"
    },
    {
      "inputs": [],
      "name": "startElection",
      "outputs": [],
      "stateMutability": "nonpayable",
      "type": "function"
    },
    {
      "inputs": [],
      "name": "endElection",
      "outputs": [],
      "stateMutability": "nonpayable",
      "type": "function"
    },
    {
      "inputs": [],
      "name": "electionStatus",
      "outputs": [
        {
          "internalType": "bool",
          "name": "",
          "type": "bool"
        }
      ],
      "stateMutability": "view",
      "type": "function",
      "constant": true
    },
    {
      "inputs": [],
      "name": "electionResults",
      "outputs": [
        {
          "internalType": "uint256",
          "name": "",
          "type": "uint256"
        }
      ],
      "stateMutability": "nonpayable",
      "type": "function"
    },
    {
      "inputs": [],
      "name": "viewWinner",
      "outputs": [
        {
          "internalType": "string",
          "name": "",
          "type": "string"
        }
      ],
      "stateMutability": "nonpayable",
      "type": "function"
    },
    {
      "inputs": [],
      "name": "getVoterCount",
      "outputs": [
        {
          "internalType": "uint256",
          "name": "",
          "type": "uint256"
        }
      ],
      "stateMutability": "view",
      "type": "function",
      "constant": true
    },
    {
      "inputs": [],
      "name": "getOwner",
      "outputs": [
        {
          "internalType": "address",
          "name": "",
          "type": "address"
        }
      ],
      "stateMutability": "view",
      "type": "function",
      "constant": true
    },
    {
      "inputs": [],
      "name": "getCandidateCount",
      "outputs": [
        {
          "internalType": "uint256",
          "name": "",
          "type": "uint256"
        }
      ],
      "stateMutability": "view",
      "type": "function",
      "constant": true
    },
    {
      "inputs": [],
      "name": "totalVotesCasted",
      "outputs": [
        {
          "internalType": "uint256",
          "name": "",
          "type": "uint256"
        }
      ],
      "stateMutability": "view",
      "type": "function",
      "constant": true
    }
  ],
  "bytecode": "0x6080604052600060015560006002556000600555600060065560006007556040518060400160405280601381526020017f43616e646964617465732072656a656374656400000000000000000000000000815250600890805190602001906200006a9291906200018c565b50604051806080016040528060528152602001620022c460529139805190602001206040518060400160405280600581526020017f51756f7465000000000000000000000000000000000000000000000000000000815250805190602001206040518060400160405280600181526020017f3100000000000000000000000000000000000000000000000000000000000000815250805190602001206004306040516020016200011f9594939291906200026f565b60405160208183030381529060405280519060200120600a553480156200014557600080fd5b50336000806101000a81548173ffffffffffffffffffffffffffffffffffffffff021916908373ffffffffffffffffffffffffffffffffffffffff16021790555062000390565b8280546200019a906200032b565b90600052602060002090601f016020900481019282620001be57600085556200020a565b82601f10620001d957805160ff19168380011785556200020a565b828001600101855582156200020a579182015b8281111562000209578251825591602001919060010190620001ec565b5b5090506200021991906200021d565b5090565b5b80821115620002385760008160009055506001016200021e565b5090565b6200024781620002cc565b82525050565b6200025881620002e0565b82525050565b620002698162000317565b82525050565b600060a0820190506200028660008301886200024d565b6200029560208301876200024d565b620002a460408301866200024d565b620002b360608301856200025e565b620002c260808301846200023c565b9695505050505050565b6000620002d982620002ea565b9050919050565b6000819050919050565b600073ffffffffffffffffffffffffffffffffffffffff82169050919050565b600060ff82169050919050565b600062000324826200030a565b9050919050565b600060028204905060018216806200034457607f821691505b602082108114156200035b576200035a62000361565b5b50919050565b7f4e487b7100000000000000000000000000000000000000000000000000000000600052602260045260246000fd5b611f2480620003a06000396000f3fe608060405234801561001057600080fd5b506004361061010b5760003560e01c806359f78468116100a25780637c99279a116100715780637c99279a1461024e5780637ecebe001461026c578063893d20e81461029c578063eaef0349146102ba578063fe6b946e146102d85761010b565b806359f78468146101fd5780635e98e4c7146102075780636247e5321461021157806362d73eb8146102445761010b565b806326541b56116100de57806326541b561461019b57806330a56347146101b7578063392e2403146101d55780634dc415de146101f35761010b565b80630121b93f14610110578063037272831461012c57806308670f4f1461015f57806311174a291461017d575b600080fd5b61012a600480360381019061012591906117d9565b6102f4565b005b610146600480360381019061014191906116c5565b610585565b6040516101569493929190611a6a565b60405180910390f35b6101676106f2565b6040516101749190611b3d565b60405180910390f35b610185610870565b6040516101929190611b3d565b60405180910390f35b6101b560048036038101906101b091906116ee565b61087a565b005b6101bf6109b5565b6040516101cc9190611b3d565b60405180910390f35b6101dd6109bf565b6040516101ea9190611a48565b60405180910390f35b6101fb610b1b565b005b610205610daa565b005b61020f610e55565b005b61022b600480360381019061022691906117d9565b6110e4565b60405161023b9493929190611b58565b60405180910390f35b61024c611224565b005b6102566112cf565b6040516102639190611b3d565b60405180910390f35b610286600480360381019061028191906116c5565b611368565b6040516102939190611b3d565b60405180910390f35b6102a4611380565b6040516102b19190611a12565b60405180910390f35b6102c26113a9565b6040516102cf9190611a2d565b60405180910390f35b6102f260048036038101906102ed919061175a565b6113c0565b005b600073ffffffffffffffffffffffffffffffffffffffff16600b60003373ffffffffffffffffffffffffffffffffffffffff1673ffffffffffffffffffffffffffffffffffffffff16815260200190815260200160002060020160009054906101000a900473ffffffffffffffffffffffffffffffffffffffff1673ffffffffffffffffffffffffffffffffffffffff1614156103c6576040517f08c379a00000000000000000000000000000000000000000000000000000000081526004016103bd90611b1d565b60405180910390fd5b60001515600b60003373ffffffffffffffffffffffffffffffffffffffff1673ffffffffffffffffffffffffffffffffffffffff16815260200190815260200160002060020160149054906101000a900460ff1615151461045c576040517f08c379a000000000000000000000000000000000000000000000000000000000815260040161045390611afd565b60405180910390fd5b60011515600360009054906101000a900460ff161515146104b2576040517f08c379a00000000000000000000000000000000000000000000000000000000081526004016104a990611add565b60405180910390fd5b6001600c600083815260200190815260200160002060030160008282546104d99190611c33565b925050819055506001600b60003373ffffffffffffffffffffffffffffffffffffffff1673ffffffffffffffffffffffffffffffffffffffff16815260200190815260200160002060020160146101000a81548160ff021916908315150217905550807fdcd6a5cd90707bfd61ed2fddae23e88c584cb5b78a0e9989710a59fd84c0a1f960405160405180910390a260016005600082825461057b9190611c33565b9250508190555050565b600b6020528060005260406000206000915090508060000180546105a890611d78565b80601f01602080910402602001604051908101604052809291908181526020018280546105d490611d78565b80156106215780601f106105f657610100808354040283529160200191610621565b820191906000526020600020905b81548152906001019060200180831161060457829003601f168201915b50505050509080600101805461063690611d78565b80601f016020809104026020016040519081016040528092919081815260200182805461066290611d78565b80156106af5780601f10610684576101008083540402835291602001916106af565b820191906000526020600020905b81548152906001019060200180831161069257829003601f168201915b5050505050908060020160009054906101000a900473ffffffffffffffffffffffffffffffffffffffff16908060020160149054906101000a900460ff16905084565b6000801515600360009054906101000a900460ff1615151461071357600080fd5b600060026007546005546107279190611cba565b6107319190611c89565b600654111561074f57600180546107489190611c33565b9050610869565b60005b6001548110156107ae57600d600c600083815260200190815260200160002060030154908060018154018082558091505060019003906000526020600020016000909190919091505580806107a690611daa565b915050610752565b506000600190505b60015481101561086757600d82815481106107fa577f4e487b7100000000000000000000000000000000000000000000000000000000600052603260045260246000fd5b9060005260206000200154600d828154811061083f577f4e487b7100000000000000000000000000000000000000000000000000000000600052603260045260246000fd5b90600052602060002001541115610854578091505b808061085f90611daa565b9150506107b6565b505b8091505090565b6000600254905090565b60008054906101000a900473ffffffffffffffffffffffffffffffffffffffff1673ffffffffffffffffffffffffffffffffffffffff163373ffffffffffffffffffffffffffffffffffffffff1614610908576040517f08c379a00000000000000000000000000000000000000000000000000000000081526004016108ff90611abd565b60405180910390fd5b6000604051806080016040528060015481526020018481526020018381526020016000815250905080600c6000600154815260200190815260200160002060008201518160000155602082015181600101908051906020019061096c929190611590565b506040820151816002019080519060200190610989929190611590565b506060820151816003015590505060018060008282546109a99190611c33565b92505081905550505050565b6000600154905090565b606060006109cb6106f2565b9050600180546109db9190611c33565b811415610a7557600880546109ef90611d78565b80601f0160208091040260200160405190810160405280929190818152602001828054610a1b90611d78565b8015610a685780601f10610a3d57610100808354040283529160200191610a68565b820191906000526020600020905b815481529060010190602001808311610a4b57829003601f168201915b5050505050915050610b18565b600c60008281526020019081526020016000206001018054610a9690611d78565b80601f0160208091040260200160405190810160405280929190818152602001828054610ac290611d78565b8015610b0f5780601f10610ae457610100808354040283529160200191610b0f565b820191906000526020600020905b815481529060010190602001808311610af257829003601f168201915b50505050509150505b90565b600073ffffffffffffffffffffffffffffffffffffffff16600b60003373ffffffffffffffffffffffffffffffffffffffff1673ffffffffffffffffffffffffffffffffffffffff16815260200190815260200160002060020160009054906101000a900473ffffffffffffffffffffffffffffffffffffffff1673ffffffffffffffffffffffffffffffffffffffff161415610bed576040517f08c379a0000000000000000000000000000000000000000000000000000000008152600401610be490611b1d565b60405180910390fd5b60001515600b60003373ffffffffffffffffffffffffffffffffffffffff1673ffffffffffffffffffffffffffffffffffffffff16815260200190815260200160002060020160149054906101000a900460ff16151514610c83576040517f08c379a0000000000000000000000000000000000000000000000000000000008152600401610c7a90611afd565b60405180910390fd5b60011515600360009054906101000a900460ff16151514610cd9576040517f08c379a0000000000000000000000000000000000000000000000000000000008152600401610cd090611add565b60405180910390fd5b600160066000828254610cec9190611c33565b925050819055506001600b60003373ffffffffffffffffffffffffffffffffffffffff1673ffffffffffffffffffffffffffffffffffffffff16815260200190815260200160002060020160146101000a81548160ff021916908315150217905550604051610d5a906119e8565b60405180910390207f5a074a7aea2ae96d3d465d04e81f21320d03a4eb77c3f298647ff4fbdce6787d60405160405180910390a2600160056000828254610da19190611c33565b92505081905550565b60008054906101000a900473ffffffffffffffffffffffffffffffffffffffff1673ffffffffffffffffffffffffffffffffffffffff163373ffffffffffffffffffffffffffffffffffffffff1614610e38576040517f08c379a0000000000000000000000000000000000000000000000000000000008152600401610e2f90611abd565b60405180910390fd5b6000600360006101000a81548160ff021916908315150217905550565b600073ffffffffffffffffffffffffffffffffffffffff16600b60003373ffffffffffffffffffffffffffffffffffffffff1673ffffffffffffffffffffffffffffffffffffffff16815260200190815260200160002060020160009054906101000a900473ffffffffffffffffffffffffffffffffffffffff1673ffffffffffffffffffffffffffffffffffffffff161415610f27576040517f08c379a0000000000000000000000000000000000000000000000000000000008152600401610f1e90611b1d565b60405180910390fd5b60001515600b60003373ffffffffffffffffffffffffffffffffffffffff1673ffffffffffffffffffffffffffffffffffffffff16815260200190815260200160002060020160149054906101000a900460ff16151514610fbd576040517f08c379a0000000000000000000000000000000000000000000000000000000008152600401610fb490611afd565b60405180910390fd5b60011515600360009054906101000a900460ff16151514611013576040517f08c379a000000000000000000000000000000000000000000000000000000000815260040161100a90611add565b60405180910390fd5b6001600760008282546110269190611c33565b925050819055506001600b60003373ffffffffffffffffffffffffffffffffffffffff1673ffffffffffffffffffffffffffffffffffffffff16815260200190815260200160002060020160146101000a81548160ff021916908315150217905550604051611094906119fd565b60405180910390207fb8e3a4804945b9518180ff263fe61444b0743bc3b100f0e2d27af662f1fae07460405160405180910390a26001600560008282546110db9190611c33565b92505081905550565b600c60205280600052604060002060009150905080600001549080600101805461110d90611d78565b80601f016020809104026020016040519081016040528092919081815260200182805461113990611d78565b80156111865780601f1061115b57610100808354040283529160200191611186565b820191906000526020600020905b81548152906001019060200180831161116957829003601f168201915b50505050509080600201805461119b90611d78565b80601f01602080910402602001604051908101604052809291908181526020018280546111c790611d78565b80156112145780601f106111e957610100808354040283529160200191611214565b820191906000526020600020905b8154815290600101906020018083116111f757829003601f168201915b5050505050908060030154905084565b60008054906101000a900473ffffffffffffffffffffffffffffffffffffffff1673ffffffffffffffffffffffffffffffffffffffff163373ffffffffffffffffffffffffffffffffffffffff16146112b2576040517f08c379a00000000000000000000000000000000000000000000000000000000081526004016112a990611abd565b60405180910390fd5b6001600360006101000a81548160ff021916908315150217905550565b60008060009054906101000a900473ffffffffffffffffffffffffffffffffffffffff1673ffffffffffffffffffffffffffffffffffffffff163373ffffffffffffffffffffffffffffffffffffffff1614611360576040517f08c379a000000000000000000000000000000000000000000000000000000000815260040161135790611abd565b60405180910390fd5b600554905090565b60096020528060005260406000206000915090505481565b60008060009054906101000a900473ffffffffffffffffffffffffffffffffffffffff16905090565b6000600360009054906101000a900460ff16905090565b60008054906101000a900473ffffffffffffffffffffffffffffffffffffffff1673ffffffffffffffffffffffffffffffffffffffff163373ffffffffffffffffffffffffffffffffffffffff161461144e576040517f08c379a000000000000000000000000000000000000000000000000000000000815260040161144590611abd565b60405180910390fd5b600060405180608001604052808581526020018481526020018373ffffffffffffffffffffffffffffffffffffffff16815260200160001515815250905080600b60008473ffffffffffffffffffffffffffffffffffffffff1673ffffffffffffffffffffffffffffffffffffffff16815260200190815260200160002060008201518160000190805190602001906114e8929190611590565b506020820151816001019080519060200190611505929190611590565b5060408201518160020160006101000a81548173ffffffffffffffffffffffffffffffffffffffff021916908373ffffffffffffffffffffffffffffffffffffffff16021790555060608201518160020160146101000a81548160ff0219169083151502179055509050506001600260008282546115839190611c33565b9250508190555050505050565b82805461159c90611d78565b90600052602060002090601f0160209004810192826115be5760008555611605565b82601f106115d757805160ff1916838001178555611605565b82800160010185558215611605579182015b828111156116045782518255916020019190600101906115e9565b5b5090506116129190611616565b5090565b5b8082111561162f576000816000905550600101611617565b5090565b600061164661164184611bdc565b611bab565b90508281526020810184848401111561165e57600080fd5b611669848285611d36565b509392505050565b60008135905061168081611ec0565b92915050565b600082601f83011261169757600080fd5b81356116a7848260208601611633565b91505092915050565b6000813590506116bf81611ed7565b92915050565b6000602082840312156116d757600080fd5b60006116e584828501611671565b91505092915050565b6000806040838503121561170157600080fd5b600083013567ffffffffffffffff81111561171b57600080fd5b61172785828601611686565b925050602083013567ffffffffffffffff81111561174457600080fd5b61175085828601611686565b9150509250929050565b60008060006060848603121561176f57600080fd5b600084013567ffffffffffffffff81111561178957600080fd5b61179586828701611686565b935050602084013567ffffffffffffffff8111156117b257600080fd5b6117be86828701611686565b92505060406117cf86828701611671565b9150509250925092565b6000602082840312156117eb57600080fd5b60006117f9848285016116b0565b91505092915050565b61180b81611cee565b82525050565b61181a81611d00565b82525050565b600061182b82611c0c565b6118358185611c17565b9350611845818560208601611d45565b61184e81611eaf565b840191505092915050565b6000611866600883611c28565b91507f52656a65637465640000000000000000000000000000000000000000000000006000830152600882019050919050565b60006118a6600a83611c17565b91507f6f6e6c79204f776e6572000000000000000000000000000000000000000000006000830152602082019050919050565b60006118e6600983611c28565b91507f4162737461696e656400000000000000000000000000000000000000000000006000830152600982019050919050565b6000611926600b83611c17565b91507f6e6f7420737461727465640000000000000000000000000000000000000000006000830152602082019050919050565b6000611966601183611c17565b91507f68617320616c726561647920766f7465640000000000000000000000000000006000830152602082019050919050565b60006119a6601483611c17565b91507f766f74657220646f6573206e6f742065786973740000000000000000000000006000830152602082019050919050565b6119e281611d2c565b82525050565b60006119f382611859565b9150819050919050565b6000611a08826118d9565b9150819050919050565b6000602082019050611a276000830184611802565b92915050565b6000602082019050611a426000830184611811565b92915050565b60006020820190508181036000830152611a628184611820565b905092915050565b60006080820190508181036000830152611a848187611820565b90508181036020830152611a988186611820565b9050611aa76040830185611802565b611ab46060830184611811565b95945050505050565b60006020820190508181036000830152611ad681611899565b9050919050565b60006020820190508181036000830152611af681611919565b9050919050565b60006020820190508181036000830152611b1681611959565b9050919050565b60006020820190508181036000830152611b3681611999565b9050919050565b6000602082019050611b5260008301846119d9565b92915050565b6000608082019050611b6d60008301876119d9565b8181036020830152611b7f8186611820565b90508181036040830152611b938185611820565b9050611ba260608301846119d9565b95945050505050565b6000604051905081810181811067ffffffffffffffff82111715611bd257611bd1611e80565b5b8060405250919050565b600067ffffffffffffffff821115611bf757611bf6611e80565b5b601f19601f8301169050602081019050919050565b600081519050919050565b600082825260208201905092915050565b600081905092915050565b6000611c3e82611d2c565b9150611c4983611d2c565b9250827fffffffffffffffffffffffffffffffffffffffffffffffffffffffffffffffff03821115611c7e57611c7d611df3565b5b828201905092915050565b6000611c9482611d2c565b9150611c9f83611d2c565b925082611caf57611cae611e22565b5b828204905092915050565b6000611cc582611d2c565b9150611cd083611d2c565b925082821015611ce357611ce2611df3565b5b828203905092915050565b6000611cf982611d0c565b9050919050565b60008115159050919050565b600073ffffffffffffffffffffffffffffffffffffffff82169050919050565b6000819050919050565b82818337600083830152505050565b60005b83811015611d63578082015181840152602081019050611d48565b83811115611d72576000848401525b50505050565b60006002820490506001821680611d9057607f821691505b60208210811415611da457611da3611e51565b5b50919050565b6000611db582611d2c565b91507fffffffffffffffffffffffffffffffffffffffffffffffffffffffffffffffff821415611de857611de7611df3565b5b600182019050919050565b7f4e487b7100000000000000000000000000000000000000000000000000000000600052601160045260246000fd5b7f4e487b7100000000000000000000000000000000000000000000000000000000600052601260045260246000fd5b7f4e487b7100000000000000000000000000000000000000000000000000000000600052602260045260246000fd5b7f4e487b7100000000000000000000000000000000000000000000000000000000600052604160045260246000fd5b6000601f19601f8301169050919050565b611ec981611cee565b8114611ed457600080fd5b50565b611ee081611d2c565b8114611eeb57600080fd5b5056fea264697066735822122054a69b02bf45786e179effb0d287c234575368fc9c5032e944c7ee36c9ae5aac64736f6c63430008000033454950373132446f6d61696e28737472696e67206e616d652c737472696e672076657273696f6e2c75696e7432353620636861696e49642c6164647265737320766572696679696e67436f6e747261637429",
  "immutableReferences": {},
  "source": "pragma solidity >=0.6.0 <0.9.0;\n\n// SPDX-License-Identifier: MIT\n\ncontract VotingContract {\n    address owner;\n\n    uint256 candidateCount = 0;\n\n    uint256 voterCount = 0;\n\n    bool start;\n\n    string pollName;\n\n    // Counter for total votes\n    uint256 votesCasted = 0;\n\n    // Counter for rejects\n    uint256 rejectCount = 0;\n\n    // Counter for abstains\n    uint256 abstainCount = 0;\n\n    // rejected string\n    string rejected = \"Candidates rejected\";\n\n    //Struct\n    struct EIP712Domain {\n        string name;\n        string version;\n        uint256 chainId;\n        address verifyingContract;\n    }\n\n    struct MetaTransaction {\n        uint256 nonce;\n        address from;\n    }\n\n    mapping(address => uint256) public nonces;\n\n    bytes32 internal constant EIP712_DOMAIN_TYPEHASH =\n        keccak256(\n            bytes(\n                \"EIP712Domain(string name,string version,uint256 chainId,address verifyingContract)\"\n            )\n        );\n    bytes32 internal constant META_TRANSACTION_TYPEHASH =\n        keccak256(bytes(\"MetaTransaction(uint256 nonce,address from)\"));\n    bytes32 internal DOMAIN_SEPARATOR =\n        keccak256(\n            abi.encode(\n                EIP712_DOMAIN_TYPEHASH,\n                keccak256(bytes(\"Quote\")),\n                keccak256(bytes(\"1\")),\n                4, // Rinkeby\n                address(this)\n            )\n        );\n    // Struct of a voter\n    struct Voter {\n        string name;\n        string voterId; // Roll number or any other number\n        address voterAddress; // Wallet address\n        bool hasVoted;\n    }\n\n    mapping(address => Voter) public voterAddresses;\n\n    // Struct of a candidate\n    struct Candidate {\n        uint256 candidateId;\n        string name;\n        string details; // manifesto or any other description\n        uint256 voteCount; // the number of votes he got\n    }\n\n    mapping(uint256 => Candidate) public candidateDetails;\n\n    uint256[] private candidateVote;\n\n    // Modifier for letting only the owner to add candidates\n    modifier onlyOwner() {\n        require(msg.sender == owner, \"only Owner\");\n        _;\n    }\n\n    constructor() public {\n        owner = msg.sender;\n    }\n\n    // function to add a new candidate\n    function addCandidate(string memory _name, string memory _details)\n        public\n        onlyOwner\n    {\n        Candidate memory newCandidate = Candidate({\n            candidateId: candidateCount,\n            name: _name,\n            details: _details,\n            voteCount: 0\n        });\n\n        candidateDetails[candidateCount] = newCandidate;\n\n        candidateCount += 1;\n    }\n\n    // function to add voter\n    // only suitable for a local blockchain\n    function manualAddVoter(\n        string memory _name,\n        string memory _voterId,\n        address _voterAddress\n    ) public onlyOwner {\n        Voter memory newVoter = Voter({\n            name: _name,\n            voterId: _voterId,\n            voterAddress: _voterAddress,\n            hasVoted: false\n        });\n\n        voterAddresses[_voterAddress] = newVoter;\n\n        voterCount += 1;\n    }\n\n    // A voting 'event' for logging the vote of the voter\n    event Vote(uint256 indexed candidateId);\n\n    // the actual voting\n    // Take uint256 _candidateId as an array, where each index of the array would point to each post that is being put up\n    // This would mean that candidateId in itself has to be a two dimensional array (of some type)\n    // This way we can also build an array of some sort (obviously not manually) which will assign\n    // each voter to the number and specific posts for which he/she can vote.\n    // This will also create fluidity for the number of posts, i.e., we can have n number of posts\n    // (Haven't thought about gas price yet)\n    function vote(uint256 _candidateId) public {\n        require(\n            voterAddresses[msg.sender].voterAddress != address(0),\n            \"voter does not exist\"\n        );\n        require(\n            voterAddresses[msg.sender].hasVoted == false,\n            \"has already voted\"\n        );\n        require(start == true, \"not started\");\n        candidateDetails[_candidateId].voteCount += 1;\n        voterAddresses[msg.sender].hasVoted = true;\n        emit Vote(_candidateId);\n        votesCasted += 1;\n    }\n\n    // event for emitting abstain\n    event Abstain(string indexed abstain);\n\n    // event for emitting reject\n    event Reject(string indexed reject);\n\n    // function for abstain\n    function abstain() public {\n        require(\n            voterAddresses[msg.sender].voterAddress != address(0),\n            \"voter does not exist\"\n        );\n        require(\n            voterAddresses[msg.sender].hasVoted == false,\n            \"has already voted\"\n        );\n        require(start == true, \"not started\");\n        abstainCount += 1;\n        voterAddresses[msg.sender].hasVoted = true;\n        emit Abstain(\"Abstained\");\n        votesCasted += 1;\n    }\n\n    // function for reject\n    function reject() public {\n        require(\n            voterAddresses[msg.sender].voterAddress != address(0),\n            \"voter does not exist\"\n        );\n        require(\n            voterAddresses[msg.sender].hasVoted == false,\n            \"has already voted\"\n        );\n        require(start == true, \"not started\");\n        rejectCount += 1;\n        voterAddresses[msg.sender].hasVoted = true;\n        emit Reject(\"Rejected\");\n        votesCasted += 1;\n    }\n\n    //voting function for meta transaction\n    // function voteMeta(\n    //     uint256 _candidateId,\n    //     address userAddress,\n    //     bytes32 r,\n    //     bytes32 s,\n    //     uint8 v\n    // ) public {\n    //     MetaTransaction memory metaTx = MetaTransaction({\n    //         nonce: nonces[userAddress],\n    //         from: userAddress\n    //     });\n\n    //     bytes32 digest = keccak256(\n    //         abi.encodePacked(\n    //             \"\\x19\\x01\",\n    //             DOMAIN_SEPARATOR,\n    //             keccak256(\n    //                 abi.encode(\n    //                     META_TRANSACTION_TYPEHASH,\n    //                     metaTx.nonce,\n    //                     metaTx.from\n    //                 )\n    //             )\n    //         )\n    //     );\n\n    //     require(userAddress != address(0), \"invalid-address-0\");\n    //     require(\n    //         userAddress == ecrecover(digest, v, r, s),\n    //         \"invalid-signatures\"\n    //     );\n    //     require(voterAddresses[userAddress].hasVoted == false);\n    //     require(start == true);\n    //     candidateDetails[_candidateId].voteCount += 1;\n    //     voterAddresses[userAddress].hasVoted = true;\n    //     nonces[userAddress]++;\n    // }\n\n    // onlyOwner function for starting the election\n    function startElection() public onlyOwner {\n        start = true;\n    }\n\n    // onlyOwner function to end election\n    function endElection() public onlyOwner {\n        start = false;\n    }\n\n    // public function to view election status (use this in dashboard)\n    function electionStatus() public view returns (bool) {\n        return (start);\n    }\n\n    // event for emitting election results\n    // event Results(uint256 indexed candidateId);\n\n    // function to view election results\n    function electionResults() public returns (uint256) {\n        require(start == false);\n        uint256 winner = 0;\n        if (rejectCount > (votesCasted - abstainCount) / 2) {\n            winner = candidateCount + 1;\n        } else {\n            for (uint256 i = 0; i < candidateCount; i++) {\n                candidateVote.push(candidateDetails[i].voteCount);\n            }\n            for (uint256 i = 1; i < candidateCount; i++) {\n                if (candidateVote[i] > candidateVote[winner]) {\n                    winner = i;\n                }\n            }\n        }\n        return winner;\n        // emit Results(winner);\n    }\n\n    // event for emitting winner\n    // event Winner(string indexed winner);\n\n    function viewWinner() public returns (string memory) {\n        uint256 winner = electionResults();\n        if (winner == candidateCount + 1) {\n            return rejected;\n            // emit Winner(rejected);\n        } else {\n            return candidateDetails[winner].name;\n            // emit Winner(candidateDetails[winner].name);\n        }\n    }\n\n    // get total number of voters\n    function getVoterCount() public view returns (uint256) {\n        return voterCount;\n    }\n\n    function getOwner() public view returns (address) {\n        return owner;\n    }\n\n    function getCandidateCount() public view returns (uint256) {\n        return candidateCount;\n    }\n\n    function totalVotesCasted() public view onlyOwner returns (uint256) {\n        return votesCasted;\n    }\n}\n",
  "sourcePath": "D:\\vote-block\\ds\\contracts\\VotingContract.sol",
  "compiler": {
    "name": "solc",
    "version": "0.8.0+commit.c7dfd78e.Emscripten.clang"
  },
  "schemaVersion": "3.4.5",
  "updatedAt": "2022-04-12T18:03:16.222Z",
  "networkType": "ethereum",
  "devdoc": {
    "kind": "dev",
    "methods": {},
    "version": 1
  },
  "userdoc": {
    "kind": "user",
    "methods": {},
    "version": 1
  }
}